:10000000083201200DAB0000F9A10000E1AA0000B8
:10001000E1AA0000E1AA0000E1AA0000E1AA0000B4
:10002000000000000000000000000000E5A2000049
:10003000E1AA00000000000089A20000E1AA00007F
:100040007DA300007DA300007DA300007DA3000030
:100050007DA300007DA300007DA300007DA3000020
:100060007DA300007DA300007DA300007DA3000010
:100070007DA300007DA300007DA300007DA3000000
:100080007DA300007DA300007DA300007DA30000F0
:100090007DA300007DA300007DA300007DA30000E0
:1000A0007DA300007DA300007DA300007DA30000D0
:1000B0007DA300007DA300007DA300007DA30000C0
:1000C0007DA300007DA300007DA300007DA30000B0
:1000D0007DA300007DA300007DA300007DA30000A0
:1000E0007DA300007DA300007DA300007DA3000090
:1000F0007DA300007DA300007DA300007DA3000080
:100100007DA300007DA300007DA300007DA300006F
:100110007DA300007DA300007DA300007DA300005F
:100120007DA300007DA300007DA300007DA300004F
:100130007DA300007DA300007DA300007DA300003F
:100140007DA300007DA300007DA300007DA300002F
:040150007DA300008B
:04015400FFFFFFFFAB
:1001580053B94AB9002908BF00281CBF4FF0FF3126
:100168004FF0FF3000F00CB8ADF1080C6DE904CE8B
:1001780000F008F8DDF804E0DDE9022304B0704778
:10018800704700BF2DE9F04F07468C460846099E88
:1001980015463C461946002B40F0C5808242B2FA0B
:1001A80082F746D94FB1C7F1200E00FA07F3BD40D8
:1001B80024FA0EFEBC404EEA030C4FEA15481FFA1B
:1001C80085FE220CBCFBF8F908FB19C309FB0EFAE3
:1001D80042EA03439A4528D9EB1809F1FF3004D2C3
:1001E8009A4502D9A9F102002B44A3EB0A03A4B251
:1001F800B3FBF8F208FB123302FB0EFE44EA034499
:10020800A64514D92C1902F1FF3303D2A64501D90A
:10021800931E2C44A4EB0E0443EA00401EB1FC409C
:10022800002334607360BDE8F08F4846DDE713466D
:10023800F0E702B9FFDE87BB831A01214FEA154EAA
:10024800AAB2200CB3FBFEFC0EFB1C330CFB02F81D
:1002580040EA0343984562D9EB180CF1FF3004D209
:10026800984502D9ACF102002B44A3EB0803A4B2D1
:10027800B3FBFEFC0EFB1C330CFB02F244EA034406
:10028800A2424ED92C190CF1FF3304D2A24202D952
:10029800ACF102032C44A41ABEE7C7F1200CBD4000
:1002A80000FA07F320FA0CF84FEA154E24FA0CFC72
:1002B800BC404CEA0302ABB2B8FBFEFC110C0EFBCF
:1002C8001C800CFB03F941EA0040814523D928181A
:1002D8000CF1FF3104D2814502D9ACF10201284466
:1002E800A0EB090092B2B0FBFEFC0EFB1C000CFB5D
:1002F80003F842EA004398450FD9EB180CF1FF3296
:1003080004D2984502D9ACF102022B44A3EB0803AE
:1003180042EA014192E76146E2E76246F6E7604653
:10032800A3E76346B7E7834205D90EB1C6E9007073
:100338000021084677E7B3FA83F181B9834201D3F4
:10034800BA420AD8BC1A60EB030301209C46002E6F
:1003580067D0C6E9004C002165E70846F7E7C1F118
:10036800200C8B4002FA01F522FA0CF420FA0CFB5F
:1003780027FA0CF28F401C4300FA01F34FEA1449A4
:1003880013431FFA84FE1A0CBBFBF9F809FB18BBD0
:1003980008FB0EFA42EA0B4292453ED9A21808F130
:1003A800FF3004D2924502D9A8F102002244A2EB00
:1003B8000A029BB2B2FBF9F809FB182208FB0EFEF1
:1003C80043EA024296452AD9A21808F1FF3304D21B
:1003D800964502D9A8F10203224443EA0040A2EB61
:1003E8000E02A0FB05939A42CE46984602D306D148
:1003F8004F4504D20138B9EB050E63EB040886B10A
:10040800B7EB0E0362EB080707FA0CFCCB40CF40B2
:100418004CEA0303C6E900379DE74046C7E7434671
:10042800DBE73146FFE6000000220023C0E9002395
:10043800C0E9022300292BD12BA3D3E90023C0F85C
:10044800D010C0E904232AA3D3E90023C0E9062376
:1004580029A3D3E90023C0E9082329A3D3E900236A
:10046800C0E90A2328A3D3E90023C0E90C2328A361
:10047800D3E90023C0E90E2327A3D3E90023C0E969
:10048800102327A3D3E90023C0E9122300207047D3
:10049800C0F8D01024A3D3E90023C0E9042324A37F
:1004A800D3E90023C0E9062323A3D3E90023C0E945
:1004B800082323A3D3E90023C0E90A2322A3D3E90D
:1004C8000023C0E90C2322A3D3E90023C0E90E23AB
:1004D80021A3D3E90023C0E9102321A3D3E90023F2
:1004E800C0E912230020704708C9BCF367E6096A0F
:1004F8003BA7CA8485AE67BB2BF894FE72F36E3CAB
:10050800F1361D5F3AF54FA5D182E6AD7F520E5107
:100518001F6C3E2B8C68059B6BBD41FBABD9831FC1
:1005280079217E1319CDE05BD89E05C15D9DBBCBBB
:1005380007D57C362A299A6217DD70305A015991FD
:1005480039590EF7D8EC2F15310BC0FF67263367E2
:1005580011155868874AB48EA78FF9640D2E0CDBE5
:10056800A44FFABE1D48B5472DE9F04300260027E1
:100578001C46B7B081460D4690460021D8226846F1
:100588000AF0D2FECDE90067CDE90267002C3DD123
:1005980033A3D3E90023CDE9042333A3D3E900230C
:1005A800CDE9062332A3D3E90023CDE9082332A3FA
:1005B800D3E90023CDE90A2331A3D3E90023CDE908
:1005C8000C2331A3D3E90023CDE90E2330A3D3E9CB
:1005D8000023CDE9102330A3D3E90023CDE912236A
:1005E800349435B12A464946684613F043F8044620
:1005F80020B94146684613F093F804466846D82166
:1006080021F0F6FE204637B0BDE8F08324A3D3E9F5
:100618000023CDE9042324A3D3E90023CDE906234D
:1006280023A3D3E90023CDE9082323A3D3E9002397
:10063800CDE90A2322A3D3E90023CDE90C2322A381
:10064800D3E90023CDE90E2321A3D3E90023CDE983
:10065800102321A3D3E90023CDE91223C0E700BF6B
:1006680008C9BCF367E6096A3BA7CA8485AE67BBBD
:100678002BF894FE72F36E3CF1361D5F3AF54FA5E8
:10068800D182E6AD7F520E511F6C3E2B8C68059BC4
:100698006BBD41FBABD9831F79217E1319CDE05B7C
:1006A800D89E05C15D9DBBCB07D57C362A299A62A9
:1006B80017DD70305A01599139590EF7D8EC2F15BA
:1006C800310BC0FF6726336711155868874AB48E07
:1006D800A78FF9640D2E0CDBA44FFABE1D48B54751
:1006E80000B583B001AB002011F00AFA03B05DF841
:1006F80004FB00BF30B4064D027C436955F8220064
:10070800044C00FB013354F8222030BC9858704741
:10071800905F0200685F0200054990F810C0D0E9B8
:10072800052351F82C009B1AB3FBF0F0704700BF6B
:10073800905F020068B170B50D46164604460AF08F
:1007480033FD334601462A462046BDE8704000F096
:1007580041BC7047704700BF704700BF704700BF7B
:1007680008B50EF0DBF8BDE808400EF0CFB800BFC2
:1007780000B587B00BA80590002303900A98CDE92F
:1007880000330290184602F079F807B05DF804FBD0
:100798002DE9F04F894689B00646394D06AFC7F8AE
:1007A800009000240596D6F800C002954D46032215
:1007B80023462046CDE900443249CDF810C0CDF893
:1007C8000C90FFF7D5FF002D55D0B346A04606E0A4
:1007D8003B6808F1010843450BF11C0B4BD0584608
:1007E800FFF79AFFC7F804D005460028F0D000208C
:1007F800AA1C02EB82029200073222F00702ADEB3C
:10080800020D0DF118094C46824606461E4BC9F8E2
:100818001000C9F800301D4BC9E902331C4BC9F858
:10082800043051465846FFF765FFDBF8043052465E
:10083800E361DBF80C300AF1010A2362DBF80830C7
:100848006662A361554504F114042060E9D10232BF
:1008580002EB820209EB8202DBF80000494656608F
:100868000AF0AAFE3B6808F101084345D7F804D00E
:100878000BF11C0BB3D10C37BD46BDE8F08F00BFA0
:10088800B85F0200A45C0200E85F02006507000090
:100898006907000010B50024574B84B00322204696
:1008A80056490293CDE900442346FFF761FF0CF057
:1008B800F5FE002840F0948051485249524C091ADC
:1008C8008908A4FB0131FFF763FF50485049091A12
:1008D8008908A4FB0131FFF75BFF4E484E49091A0E
:1008E8008908A4FB0131FFF753FF4C484C49091A0A
:1008F8008908A4FB0131FFF74BFF4A484A49091A06
:100908008908A4FB0131FFF743FF48484849091A01
:100918008908A4FB0131FFF73BFF46484649091AFD
:100928008908A4FB0131FFF733FF44484449091AF9
:100938008908A4FB0131FFF72BFF42484249091AF5
:100948008908A4FB0131FFF723FF40484049091AF1
:100958008908A4FB0131FFF71BFF3E483E49091AED
:100968008908A4FB0131FFF713FF3C483C49091AE9
:100978008908A4FB0131FFF70BFF3A483A49091AE5
:100988008908A4FB0131FFF703FF38483849091AE1
:100998008908A4FB0131FFF7FBFE36483649091ADE
:1009A8008908A4FB0131FFF7F3FE34483449091ADA
:1009B8008908A4FB0131FFF7EBFE32483249091AD6
:1009C8008908A4FB0131FFF7E3FE30483049091AD2
:1009D8008908A4FB013104B0BDE81040FFF7D8BE78
:1009E8002C482346CDE901400122204603490094C2
:1009F800FFF7BEFE60E700BF24600200A45C0200AF
:100A0800EC690500086A050025499224406A05003A
:100A18005C6A0500086A0500246A05005C6A05002E
:100A2800786A0500246A0500406A0500786A0500AE
:100A3800946A05007C6905009869050060690500ED
:100A48007C690500D46805000C69050098690500F3
:100A5800EC6905000C6905006069050080680500FF
:100A6800D46805002C68050080680500946A0500B4
:100A7800CC6A050068670500A0670500A067050047
:100A8800D8670500D86705001068050010680500DC
:100A98002C680500406002002DE9F04F9A46C2F329
:100AA800C20301338FB088468707194602F0040352
:100AB800189D029340F01A820746041D002800F092
:100AC800D681B8F1070F40F274814FF0000B4FF058
:100AD800FF3902F002030493CDF804B00AEB0906CB
:100AE800CDF80CB00FB1C4F800A0002940F3A381E1
:100AF800049B03B30120E21B9308B2F5007F80F04A
:100B0800FA81BBF10F0F00F20582002F00F0D681A9
:100B18000EAA5A44DBB202F8203C02F8109C0028C6
:100B280000F09F8163F07F0302F8203C019B0133B2
:100B380001930BF1010B73780434701C002B71D0F6
:100B48004FF0040E00267246C7F1080CCDF814A029
:100B5800002E00F03781203B5A2B5CD8DFE813F0D9
:100B68005C005B005B005C005B002E015B005B00CF
:100B78005B005B000C015C005B005C005C005B00E0
:100B88005C005C005C005C005C005C005C005C007D
:100B98005C005C005B005B005B005B005B005B0073
:100BA8005B00C2005B005B005B00C200C200C200C9
:100BB8005B005B005B005B005C005B005B005B0054
:100BC8005B005B005B005B005B005B005B005B0045
:100BD800D7005B005B005B005B005B005B005B00B9
:100BE8005B00C2005B00D700D700C200C200C20091
:100BF8005C00D70047015B005C005B000101D70087
:100C080001015B005B002001F900D7005B005B007D
:100C1800D7005B00F900002610F8013F002B97D1A0
:100C2800DDF814A0E01BB0F5806F80F08281002F02
:100C380000F0318100223A6082083A70029A9DF8E9
:100C48000C30002A40F0D7807B70019BBB70002BD2
:100C580000F0D780BBF1000F00F0AD8006AD2A464A
:100C680005EB0B01C7F1010012F8013B1E0607D581
:100C78002618464503F07F0300F29B8004F8013BE9
:100C88009142F1D14FF00009C7F101060397574689
:100C9800CA46B146029E019B1BB195F90020002A65
:100CA80015DB002E00F0BC800AAB13F80A2004F80C
:100CB800012B002209EB020CA444C44579D8204634
:100CC8002C78394600F8014B84180AF0EFFA0AF13B
:100CD800010AD34505F10105DDD8039FE01B0FB0DC
:100CE800BDE8F08F073525F00705073424F0070421
:100CF800F5E802232FB10CEB040EC64559D8C4E918
:100D080000234FF0080E00267246083484E710F8D6
:100D1800013C6C2B21D00EF1FF331C44CEF10003B3
:100D28001C402346002F00F0A08000261344DB1B44
:100D380043453ED8042A4FD0082A40F0C4800735DE
:100D480025F00705F5E80223C4E900230822083442
:100D580062E74FF0040E72465EE710F8023C6C2B17
:100D680054D0033424F003042346002F3AD04FF024
:100D7800040E00267246D9E70EF1FF331C44CEF16B
:100D8800000323401C46002FD0D1042A00F0AC8079
:100D9800082A40F09880073525F007050835D5E77B
:100DA800033424F00304002F70D0231DDB1B984567
:100DB8006CD26FF01B000FB0BDE8F08F002609F170
:100DC800FF3929E7252B7FF427AF4FF0040E0126C2
:100DD800724609F101091FE755F8043B2360042214
:100DE800043419E73E464FF0040E0435F7E74FF098
:100DF800080E724610E7FB70019BBB70002B7FF456
:100E080029AFBBF1000FD6D006AD3BE7073424F07D
:100E18000704234697B34FF0080E0026724685E76D
:100E28002A78039B53F8227043F8226038460AF068
:100E3800BBF9421C3EE7464B9A4503D3454B9A45BE
:100E4800FFF456AE0498E21B9308002851D1BBF179
:100E58000F0F5FD82FB30EAA5A4402F8203C02F8AD
:100E6800109C039B0133039363E63E468DE708F02D
:100E7800070808F10404C8F1080826E6073525F034
:100E880007053E464FF0080E08355FE7064655F859
:100E980004AB013926E6A8F1080840440FB0BDE8C4
:100EA800F08F029B08F10208002B7FF442AE5046F7
:100EB80005910AF079F9059980443AE60028F0D0BE
:100EC80008F1010835E6164640F2C523224A2348B0
:100ED800234901F089F93146224801F085F940F2A9
:100EE800C5211D4801F078F9043578E76FF00D0049
:100EF80061E7002001E61A4940F27B23164A1748A9
:100F080001F072F9184801F06FF940F27B2112489C
:100F180001F062F912494FF420730F4A0F4801F0AB
:100F280063F9124801F060F94FF420710A4801F0A2
:100F380053F90B4940F2D123074A084801F054F904
:100F48000B4801F051F940F2D121034801F044F96E
:100F580098580200CC6A05005C6002008C600200B0
:100F680004F60400EC600200AC600200D0600200ED
:100F78000461020053B32DE9F04799461C785D7867
:100F8800DB78A40004EB430499F8023007461C44BC
:100F98000E4690464C447DB14FF0000A14F8013BD0
:100FA8000AF1010A204649F823400AF0FDF85545A0
:100FB80000F101000444F1D141463846B446D9F85D
:100FC800042009F10803BDE8F04760476FF01500F9
:100FD800704700BF70B50C4604F00105014605EBEB
:100FE8005400984254D86608002D40D1002E3DD0B8
:100FF80002F1FF3C01EB460E19E0A2F15703DBB208
:101008001B01DBB28CF801304C78A4F13002D2B26B
:10101800092A06D9A4F16102052A1AD8A4F15702AF
:10102800D2B2023113448E450CF8013F1ED00A7823
:10103800A2F13003DBB2092BE2D9A2F16103052B3F
:10104800DBD9A2F14103052B22D8A2F13703DBB289
:10105800D6E7A4F14102052A1AD8A4F13702D2B280
:10106800023113448E450CF8013FE0D170BD0C7875
:10107800A4F13003DBB2092B06D9A4F16103052BD7
:1010880008D8A4F15703DBB202F8013B0131ADE700
:10109800002070BDA4F14103052BF9D8A4F1370352
:1010A800DBB2F1E7034630B1426802F00302012ADD
:1010B80007D0032A02D06FF0150070470268002A93
:1010C800F9D0002210469A60704700BF08B5426800
:1010D800034602F00302032A816003D1006800225C
:1010E8005A6008BD4AB9074907484523074A01F02D
:1010F8007BF84521054801F06FF8002000225A606E
:1011080008BD00BF04F604008C60020030610200D4
:1011180000207047014B1860704700BF0400002092
:1011280001F0FABA0FB400B583B004A951F8040B62
:10113800019101F0F1FA03B05DF804EB04B07047D7
:101148002DE9F04F1446828B83B012F0080306464F
:10115800019340F0278102F00703022918469BB249
:1011680040F0A080002B40F0D4803368002B00F0C2
:10117800D480002840F05E813369D3F800B0BBF119
:10118800000F00F0B3814FF0060922F0070343F087
:101198000603B38300252F46B268002A6AD04FF0B1
:1011A800010843F0080306F1140A5046B3830EF011
:1011B80045FA002800F0248184F31188BFF36F8F6B
:1011C800B8F1000F40F088809DB1A84640463946E6
:1011D80050F8045BFFF77AFF0446002800F093807C
:1011E8004146A8463B464A463046A047B8F1000F5C
:1011F800ECD1BBF1000F02D03046AA49D8474FF0D6
:101208002003EFF3118483F31288BFF36F8F5046E6
:101218000EF006FA002800F0E58050460EF01EFA9F
:10122800B38B23F008039BB2D906B3832BD5B769D8
:1012380023F0100292B203F00700002F0146B28398
:1012480034DB4B1F012B40F29E80042940F0FE80C6
:1012580022F0070335689BB2B383002D00F0A0800D
:101268004FF0000943F0200381454D464FF0000B35
:10127800B38391D14FF00008002D92D1BBF1000F3C
:101288008FD1D906D3D49A0647D5022123F020025C
:1012980092B203F00700022902F00703B2839BB25F
:1012A8003FF460AFB7691946002FCADA4FF0010959
:1012B80022F00703019A43F0010335687260B38393
:1012C800326081454FF0000B7FF466AF4FF00008A5
:1012D800002D7FF466AFD1E7B16800293FF474AF01
:1012E8000C68A8463B464A4630464D68A84744B174
:1012F800214624683B464A4630464D68A847002C9C
:10130800F6D1454660E7A846B8F1000F7FF45EAF16
:101318006FE7022B21D1F38B6BB1143630460EF0F8
:101328008DF9002800F09E8084F31188BFF36F8F39
:1013380003B0BDE8F08F022840F0CC803369D3F8C1
:1013480004B0BBF1000F00F0A18022F0070343F0C6
:1013580004034FF00409B3831CE7012BDDD1336884
:10136800002BDAD0012840F085803369D3F808B023
:10137800BBF1000F52D022F0070343F005034FF0F2
:101388000509B38306E722F00703019A06293568A1
:1013980072609BB232600DD04FF00009B38390E7C2
:1013A800A9468EE701290CBF42F0100242F0200244
:1013B8008283B2E73DB12946F28B013292B2F283C1
:1013C80009680029F9D1F18B43F00202B28319B1FF
:1013D80013464FF0020974E743F022034FF0020965
:1013E800B3836EE78E23304A3048314900F0FCFE63
:1013F8005146304800F0F8FE8E212B4800F0ECFEF4
:101408002D49B923284A294800F0EEFE51462B48B9
:1014180000F0EAFEB921244800F0DEFE28492348FE
:101428004FF4B473274A00F0DFFE4FF4B471254837
:1014380000F0D2FE24491D484FF4AB73214A00F056
:10144800D3FE4FF4AB711F4800F0C6FE1F49174882
:1014580040F21B131B4A00F0C7FE40F21B1119484B
:1014680000F0BAFE1449B9230F4A104800F0BCFE38
:101478003146CCE716490D484FF4B273114A00F0D3
:10148800B3FE4FF4B2710F4800F0A6FE0C490748AE
:1014980040F261130B4A00F0A7FE40F261110948BF
:1014A80000F09AFE1D150000CC6102008C6002005D
:1014B8002C62020044620200FC6102001462020015
:1014C80084610200546102007861020004F604009D
:1014D800B46102000B490C4840F25D130B4A00F05E
:1014E80083FE40F25D11094800F076FE084906487F
:1014F8004FF4AD73054A00F077FE4FF4AD71034821
:1015080000F06AFE9C6102008C60020054610200D7
:1015180084610200F8B504460D4600F114064FF048
:101528002003EFF3118783F31288BFF36F8F3046E0
:101538000EF076F850B130460EF090F8A5613A46B4
:101548002046BDE8F8400121FFF7FABD8E23064A80
:101558000648074900F048FE3146064800F044FEB8
:101568008E21014800F038FECC6102008C60020038
:101578002C6202004462020088B138B50C4659B1A9
:101588000B684BB14B683BB105462022002109F09E
:10159800CBFE2C61002038BD6FF0150038BD6FF010
:1015A800150070472DE9F84F002877D00D4600291F
:1015B80074D001F1040A04465046FFF773FD061E75
:1015C80036D1AB6833F0030368D104F114094FF046
:1015D8002003EFF3118B83F31288BFF36F8F484614
:1015E8000EF01EF8074600285BD048460EF036F885
:1015F8004FF6FF71E38BA28B8B4202F0070842D0B3
:10160800B8F1020F25D0930716D100232B60636829
:10161800002B3CD01D606560B8F1000F5DD14646D7
:1016280020465A460221FFF78BFD3046BDE8F88F69
:10163800CBDA3046BDE8F88FB8F1060FE5D0B8F13F
:10164800050F27D0B8F1010F4AD16FF00406002723
:1016580002E046460133E38348460DF0EFFF70B3DE
:101668008BF31188BFF36F8F002FE2D05046002113
:10167800FFF72CFD07460028DBD0424629462046C6
:101688000023B847D5E76FF00A060027E4E7C4E966
:101698000055C1E76FF085060027DDE76FF01506F6
:1016A800C7E78E23144A1548154900F09DFD4946A1
:1016B800144800F099FD8E210F4800F08DFDB923E4
:1016C8000D4A0E48104900F08FFD49460F4800F0BA
:1016D8008BFDB921084800F07FFD46460027BBE78F
:1016E8000B4906484FF4E4730A4A00F07DFD4FF4B5
:1016F800E471084800F070FDCC6102008C600200C3
:101708002C62020044620200FC61020014620200C2
:10171800B461020054610200044608B50846114647
:101728001A46A0470FF028FC09F050FA2DE9F04FAF
:101738008346107899B0029388B1164689460027E7
:10174800D846252806F101050CD04946C04700288F
:1017580005DB2E46013730780028F2D1384619B01B
:10176800BDE8F08F00237478CDE91233252CCDE93C
:101778001433CDE9163300F0EF8100239B469A46D7
:10178800009304930193A4F12003102B0AD8DFE8F7
:1017980003F0A40909A109090909090909AA09A75E
:1017A80009099C009DF85030019A62F38203049A5B
:1017B80062F3C3036AF30413009A6BF3451362F3ED
:1017C80086138DF8503003F04403442B14BF13469E
:1017D80000232A2C009300F01782A4F13003092B70
:1017E800294698BF002300F2798103EB830304EBB9
:1017F8004304A4F1300311F8014FA4F13002092A7F
:10180800F3D9A94200F06A810022039308924FEAB3
:10181800D37E2E2C0CBF0123002340F0E7814C78A7
:101828002A2C00F07784A4F13002092A4FF0000234
:10183800204601F1010188BF05920FD811F8014F28
:1018480002EB8202A4F1300500EB4202092D20468A
:10185800A2F13002F2D905924EEAD27E0022A4F11A
:101868004C004D1C2E2841D8DFE810F0230340001F
:101878004000400040004000400040004000400060
:101888004000400040004000400040004000400050
:101898004000400040004000400040004000400040
:1018A800400040001B0340003C034000340340005C
:1018B8004000400040004000400040002F0340002E
:1018C80040004000400040002A030123009315F81F
:1018D800014F58E74FF0010BF9E74FF0010AF6E71F
:1018E80001230193F3E701230493F0E700200B9011
:1018F800A4F141010995372939D8DFE811F08E01A3
:101908003800380038008E018E018E01380038000A
:1019180038003800380038003800380038003800FF
:10192800380038003800380038003800B80138006E
:1019380038003800380038003800380038008E0188
:101948003800B801A7028E018E018E013800A70267
:101958003800380038003800F802B8019102380021
:10196800380091023800B80138003800B8014FF04B
:10197800000C0121CDF828C0069101250795089D86
:1019880045EA430343EA820343EAC0029DF8513023
:10199800029D23F07F031343D9078DF8513040F19E
:1019A800BA8055F8042B002A039203DA52420392B4
:1019B800012201925A0740F1988055F8043BBCF186
:1019C800010F43EAE373059300F09A80BCF1020F1C
:1019D80000F0FB80BCF1040F00F00B81BCF1030F99
:1019E80000F0928302959DF85030069A62F3000346
:1019F800019A6EF3410362F38203049A62F3C3030C
:101A08006AF30413009A6BF3451362F38613079A7B
:101A180062F3C713DAB28DF850309B07049240F096
:101A2800B980A4F12503532B56D8DFE813F0BA0286
:101A380055005500550055005500550055005500F6
:101A480055005500550055005500550055005500E6
:101A580055005500550055005500550055005500D6
:101A680055005500550055005500550055005500C6
:101A780055005500550055005500550055005500B6
:101A880055005500550055005500550055005500A6
:101A9800550055004A0155005500550055005500A0
:101AA80055005500550055005500AD02140255006B
:101AB80055005500550014025500550055005500B5
:101AC8007A024A01A002550055008D0255004A01CC
:101AD800550055004A01A046099E3CE64FF0000E0D
:101AE800CDF80CE0CDF820E093E613F0020F059B4B
:101AF80008BF4FF0FF33BCF1010F05937FF466AFC9
:101B0800C31E042B00F29280DFE813F0D3003A00E2
:101B18003A00900090009DF85020069961F3000269
:101B280001996EF3410261F38202049961F3C302E1
:101B38006AF3041200996BF3451261F38612079950
:101B480061F3C71212F0800F8DF85020039A08BF76
:101B58004FF0FF3203922DE71846B31C09938446D1
:101B680002460346834682468646CDE90A00CDE909
:101B78000700059003900090049001900690FEE6FF
:101B8800073525F007031946F1E80223CDE91223AA
:101B9800029128E743460024B846099D1F4608E0FD
:101BA800494616F8010BB847002804F10104FFF66E
:101BB800D6ADB542F4D83B46002C47462046984659
:101BC800FFF6CDAD099E2744C5E5C31E042B3ED8BC
:101BD80001A252F823F000BF1B1E0000891B000061
:101BE800891B0000571C0000571C000000220592AA
:101BF80035E6073525F0070505F108030293D5E911
:101C08000023CDE91223EEE601234FF0000E6C7895
:101C1800CDF80CE00893E918FBE54FF0040C00211F
:101C28004FF0010E0691CDF828C0A6E62A4652F8D4
:101C3800043B012812934FEAE3730292139340F096
:101C480073829DF948301293DB171393CBE62A462B
:101C58000023139352F8043B01280292129340F098
:101C68007B82002313939DF848301293BBE64FF014
:101C7800020CCDF828C09DF851500899632C61F3E7
:101C8800000563F3410562F3820560F3C6058DF82C
:101C9800515005F07805A5F14001B1FA81F14FEAFC
:101CA800511106917FF469AE002D18BF4EF0010E58
:101CB80063E62A4652F8043B1293DB170292139309
:101CC80091E6A4F141036F2C1A46DDE912B640F003
:101CD8006E824FF0080A0023CDE906A308940DF19F
:101CE8004605144604E00CAB9D421AD083460E46C6
:101CF8005846524631460023FEF72AFA5FFA82FC1C
:101D0800092A0CF1300305D9192C0CF1370388BFC7
:101D18000CF15703DBB2D34505F8013D76F100031A
:101D2800E1D2049B089C13F0200300F0FA81069B83
:101D3800082B00F03782A3F11003B3FA83F35B0991
:101D48000493002306930DF14603581B059B002BB3
:101D580080F2D18100220592079B002B00F0378288
:101D680001300DF146069DF852300A9961F30203DD
:101D7800069961F3C303049961F304138DF8523093
:101D8800D9B213F01003089300F04A810230039B84
:101D9800002B40F31B811044019A1B1A0393002A5D
:101DA80040F0148100998B0103F044029DF85030F3
:101DB80023F0440313438DF850305B0640F1D5817E
:101DC8000798002800F0B9814946C0470028FFF667
:101DD800C6AC03990137002901F1FF3340F3B681FE
:101DE8004FF0300A019A079201379B46FB18474685
:101DF800984604E0BBF1000F40F3E5809B46494656
:101E08005046B8470028A8EB0B020BF1FF33F1DA74
:101E1800A5E42B1D02932B68129300231393E2E58C
:101E28009DF8515008994FF0030C61F3000500210B
:101E380063F3410562F3820560F3C6058DF85150DE
:101E48000691CDF828C005F078052DE74FF0010C74
:101E5800CDF828C00FE7049B1D0700F1918113F00E
:101E6800100318BF20230793DDE91223002B06DA9D
:101E7800524263EB430313932D2312920793A4F169
:101E880041031A46DDE912B66F2C40F2038104F0D3
:101E9800F703702B00F001814FF00A0ACDF818A063
:101EA8001CE74C78682C00F07181022001350B90FA
:101EB8001EE508204FF0010E4C7801350B9017E510
:101EC80006204C7801350B9012E507204C78013537
:101ED8000B900DE54C786C2C00F05E8103200135E9
:101EE8000B9005E505204C7801350B9000E59DF831
:101EF800515008994FF0030C61F30005002163F37A
:101F0800410562F3820560F3C6058DF8515005F06E
:101F18007805402D08BF4EF0010E0691CDF828C077
:101F28002BE50B9A129B072A3FF6D6ADDFE802F0A5
:101F380004474304070704041F60099E0BE4FA17CB
:101F4800099E1F605A6006E40599129D00292846DB
:101F5800C0F2198109F034F92E18002D3FF4BCADF8
:101F680000231A46CDE9043307930693FBE6129B38
:101F7800002B40F097800520964D1A46CDE9043392
:101F880007932E180693EEE60022129B0120CDE956
:101F9800042207928DF830300CAD0DF1310606920F
:101FA800E1E649462520C0470028FFF6D8AB099E40
:101FB8000137FFF7D0BB099E1F80FFF7CCBB099EF6
:101FC8001F70FFF7C8BBB84617460393079B33B18A
:101FD80018464946C0470028FFF6C1AB0137049BA5
:101FE80013BB069B03BB089B33B120464946C04739
:101FF8000028FFF6B4AB0137059B002B40F3DA80CD
:10200800DDF814B04446BB4401E05F4514D04946AE
:102018003020A047002807F10107F6DAFFF79FBB39
:10202800090748BF0130B2E649463020C0470028BA
:10203800FFF695AB0137D6E7A0460024474609E0EE
:1020480028784946B847002805F1010504F101043C
:10205800FFF685ABB542F3D316B928780028F0D13E
:10206800002CB8462046FFF67AAB039BA344002B0E
:1020780040F3A2805B441F46444602E0BB453FF460
:102088002AAD49462020A04700280BF1010BF5DABC
:10209800FFF765BB582C7FF4FFAE4FF0100ACDF860
:1020A80018A01BE600220DF146050CA803E08542A6
:1020B80014D00B46224603F00F010C46092994BFA1
:1020C80030345734102B4FEA131172F1000305F81E
:1020D800014D41EA02714FEA1214E8D20DF14603AC
:1020E800581B059B002B4FF00003079366DB01226A
:1020F800782404920693059B834229D91B1A1A4611
:1021080005930023009327E62A4652F8043B0292DF
:10211800129368E400228C78059202310122FFF7BD
:102128009EBB049306930EE602287FF45CACBDF9CF
:1021380048301293DB17139355E4039A002AC8BF5B
:102148004FF0300A02F1FF333FF74EAE039346E7F4
:10215800002205920092FFE502287FF444AC002398
:102168001393BDF8483012933DE4039A002AC8BF80
:102178004FF0200A02F1FF333FF736AE039325E70D
:102188002B23079370E609F00FF8E5E601208C7819
:10219800CD1C0B90FFF7ACBB04208C78CD1C0B90AA
:1021A800FFF7A6BB0023049301230693CBE5002386
:1021B800079369E6BB4640E75F468DE40122782431
:1021C8000492CDE905331A460DF14606CBE50DF12B
:1021D8004606C8E55C620200404080F311884FF073
:1021E800040002DF704700BF0FB400B583B004A934
:1021F80051F8040B0191FEF793FF03B05DF804EB6F
:1022080004B07047704700BF10B44FF02003EFF3DD
:10221800118C83F31288BFF36F8F01210223124AB6
:10222800124C1348C4F80015C2F8D036D0F8003262
:1022380023F0E04343F04053C0F80032D0F80432B2
:1022480023F0E04343F04053C0F80432C2F80417C7
:10225800C2F80419C2F8001B8CF31188BFF36F8F02
:10226800002010BC704700BF004000500010005014
:102278000025845058B1064B06491B68064AA1FB45
:1022880003139B0C03FB00F042F001021047704758
:102298005800002083DE1B43E05C0200062800D0C3
:1022A80070470122034BC3F80025BFF34F8F20BFAF
:1022B800FDE700BF00400050002383F31188BFF3FF
:1022C8006F8F704710B586B00BA805900023054C9A
:1022D8000122CDE90240CDE90033184600F0CEFADC
:1022E80006B010BD686202000F2A70B516D81D46E8
:1022F8000646084694000AF071FC45B130B3194B04
:1023080046F000462344C0F880601E6070BD88B166
:10231800144BC0F8805023441D6070BD1249134807
:1023280040F2E713124AFFF75FFF40F2E711104847
:10233800FFF752FF0F490D4840F263230E4AFFF79B
:1023480053FF40F263210C48FFF746FF094907484D
:1023580040F24E23084AFFF747FF40F24E21064855
:10236800FFF73AFF80A10250C46202008C600200AD
:102378009062020008630200D062020070B586B065
:1023880005A80BF011FD254B98420FD06FF01204F1
:10239800002323480122CDE90204CDE90033184681
:1023A8002049FFF78FFF204606B070BD0AF066FC93
:1023B800041E2BDB40F607031B4D8DF81540AE6855
:1023C800ADF816307468059B2CB308212846174AC7
:1023D800A047041EDCDB3369EBB101220821284643
:1023E8009847041ED4DB01239DF81400104903FA12
:1023F80000F2C1F804259DF817209DF81510FFF785
:1024080073FF002CC4D1204606B070BD9DF814009F
:102418000BF0D0FCBCE76FF05704B9E70000AD0B38
:1024280068620200445C0200905902003D240000EA
:10243800007001502DE9F04383B083681B6973B3C2
:10244800144600229847804648BBC4F307294846EB
:102458000AF0E0FBE6B243464946220E07463046FC
:10246800FFF742FFC4F3074548460AF09DFB0F2DCE
:102478002BD81C4BAD00EDB246F000465E51C0B102
:10248800194907F13202C0F8806043464846CDE951
:10249800001452000AF0DAFB03B0BDE8F0831349D8
:1024A8001348CA23134AFFF79FFECA211148FFF7B2
:1024B80093FE11490E484FF41273104AFFF794FE29
:1024C8004FF412710D48FFF787FE0D49084840F296
:1024D800E1130C4AFFF788FE40F2E1110948FFF7C3
:1024E8007BFE00BF80A0025011250000446302005B
:1024F8008C6002000C63020050630200D06202008C
:10250800C462020090620200F8B5069CC4F3072674
:102518003046E5B2C4F307440AF046FB0F2C17D83F
:10252800A3000246DBB248B3012100273046194C0C
:10253800194EA940C2F88070E750C6F808150AF08D
:10254800C1FB28460BF036FC144B98420CD1F8BD61
:102558001349144840F2E113134AFFF745FE40F2CD
:10256800E1111148FFF738FE10490E487423104A4C
:10257800FFF73AFE74210E48FFF72EFE0D49094871
:102588004FF417730C4AFFF72FFE4FF417710A48E0
:10259800FFF722FE80A00250007001500000AD0B32
:1025A800C46202008C600200906202005463020060
:1025B8000C63020050630200D06202000BF0B0B856
:1025C800002070470AF01ABC2DE9F04F454F464EDF
:1025D80083B0BF1B902F019077D88946434BD3E82F
:1025E800EF8F08F10102C3E8E12F0029F7D1B8F114
:1025F800000F44D1002F42D0344645464FF0010B1E
:102608003F1104E00135AF4204F1100418DD237BCB
:10261800002BF7D0D4F800A0DAF80C200AB1204635
:102628009047DAF810306BB32046984750B30BFA4E
:1026380005F30135AF4248EA030804F11004E6DC6B
:10264800019BE3B1B8F1000F19D04FF0010A4546DC
:1026580095FAA5F3B3FA83F306EB031B9BF80C106A
:102668000AFA03F2D74325EA02051C0189B9002DAD
:10267800EED1B9F1000F1FD1B8F1000FE7D103B0C7
:10268800BDE8F08F636804222046196800F0D0F88E
:10269800B8E733591B691BB1584698470028E6D15B
:1026A80033195B6804225846196808EA070800F0DD
:1026B800BFF8002DCCD1DCE74FF4A47000210EF058
:1026C80027FCB8F1000FC2D1D9E7094909484FF4EE
:1026D8008473094AFFF788FD4FF484710648FFF7B1
:1026E8007BFD00BFD45C0200C45C0200AC05002086
:1026F800A46302008C60020074630200002108B524
:102708000846FFF761FF002008BD00BF014B53F8E2
:1027180020007047CC63020000B585B00023CDE9E6
:1027280002011A4619461846CDE9003300F0A6F80A
:1027380005B05DF804FB00BF002310B40548064C43
:102748000649074A04600B7013604FF4004010BC40
:1027580000F048BB08000020CD250000FCB1002097
:10276800A8050020F8B5124F3D7805B1F8BD2946F7
:102778000120FFF729FF0F4C0F4B1B1B002B4FEAC3
:10278800231604DC10E0B54204F110040CDA636887
:1027980001355B79002BF6D0236820469B68984763
:1027A800B54204F11004F2DB01233B70F8BD00BF11
:1027B800FCB10020C45C0200D45C0200704700BF7A
:1027C800F8B5104B07461B6898470F4C0F4BB8607D
:1027D8001B1B002B14DD00251E1103E0B54204F17C
:1027E80010040DDA636801355B79002BF6D0236895
:1027F800204639461B689847B54204F11004F1DBBE
:10280800F8BD00BF08000020C45C0200D45C0200D0
:1028180000207047044A054B9B1AB1EBD30F34BF15
:1028280052F8310000207047F45B0200C45C0200DB
:1028380008B50E4BC31A78B101221B11D0F804C099
:102848000133DBB28CF804304368196043685A716D
:10285800BDE80840FFF7B2BF05490648DE23064A2F
:10286800FFF7C2FCDE210448FFF7B6FCC45C020097
:102878006C6402008C600200346402002DE9F04FA1
:1028880087B002AFD7F840B0044689461546984647
:10289800BE6BD7F844A0BBF1000F45D010215B46B2
:1028A8000020FA6BCDF800A0C7F80CA0FEF7F4F8EA
:1028B800011E57DB06F117020A4422F00702ADEBAE
:1028C800020D5B460DF1180BFA6BCDF800A05846C7
:1028D8007960FEF7E1F87968C6F30B02002816461E
:1028E80004F0070405F00705C1F309030DF1080A10
:1028F8002EDBB8F1000F07D0C1F309005844414658
:102908007B6008F0D3FC7B68E40044EA851545EA5F
:10291800432343EAC6435046CAE90039FFF750FF4C
:102928001437BD46BDE8F08F5B4602F0070506F197
:10293800170222F00702ADEB020DC6F30B02164692
:10294800194600F007040DF1080A0DF1180BD0E73D
:1029580009490A4882230A4AFFF746FC82210848A7
:10296800FFF73AFC044905486823054AFFF73CFC91
:1029780068210348FFF730FCBC6402008C60020049
:102988008464020002460B4600B583B08DF8072028
:102998000121D3E900320DF1070052689847002061
:1029A80003B05DF804FB00BF70B50A2805460C4665
:1029B80082B00CD00DF1070662688DF807503046DA
:1029C8000121236852689847002002B070BD0D218C
:1029D80063680DF107065A6830468DF807102368BA
:1029E80001219847E8E700BF10B5002482B00094A1
:1029F800FEF79CFE02B010BD0EB410B5002485B0E1
:102A080007AB53F8042B0146009404480393FEF7E0
:102A18008DFE05B0BDE8104003B070478D29000059
:102A28002DE9F0418046D0E90073D3E90046856876
:102A3800284621463246B847241A0544F8D1D8F822
:102A480004301C60BDE8F0812DE9F04F89B09DF895
:102A580048C01D46DDE913B663460446CDF814C0E8
:102A68005BBBAA48AA4BDDF81480012D18BF184695
:102A7800BBF1000F07D05B462246A649FEF77AFA5B
:102A88000028C0F23681159B002B64D1059B002BD2
:102A980053D1D4E90083D3E900573B4647469846CB
:102AA800A668304629464246B8472D1A0644F8D14A
:102AB80063681D6009B0BDE8F08F17468846FFF7C8
:102AC800A7FE169B024603F0020903F001030693D2
:102AD800169B03F008030493002800F0B0802046FA
:102AE8008D49FFF789FF8246B9F1000F40F0AC80AD
:102AF800069B5BB1894B059A204653F82220884BE8
:102B08008849002A08BF1A46FFF776FF049B002B66
:102B180040F0DE80DDF810802FB13A462046824929
:102B2800FFF76AFF80442DB12A4620467F49FFF708
:102B380063FF80447548D0449AE7169BD90778D438
:102B4800169BDA06A5D49B0620464CBF78497949DE
:102B5800FFF752FF9DE7169B774F03F0100304938E
:102B6800159D049B102D28BF10253BB9169B2046A8
:102B78009A064CBF6E496F49FFF73EFFB8F1000F48
:102B8800C8BF4FF0000907DD3946204609F10109A1
:102B9800FFF732FFC845F7D14FF0000B23465C46DC
:102BA8009B46DFF898A1DFF8989194B363073BD070
:102BB800A5422ED851465846FFF71EFF0134102C67
:102BC800F3D14FF0000A58465E495446FFF714FF08
:102BD800DA46DFF874918CB1600720D0AC420DD38F
:102BE80039465046FFF708FF0134102CF3D1159BE6
:102BF80054465B1B2E441593B2D147E7325D4946D4
:102C0800A2F120035F2B28BF2E225046FFF7F4FEC7
:102C1800EAE749465846325DFFF7EEFECEE7394609
:102C28005046FFF7E9FED9E739465846FFF7E4FE74
:102C3800BEE720463A4A3B49FFF7DEFE80E7824678
:102C4800B9F1000F3FF454AF169B13F0440F49D06D
:102C58003E4BD3F80090B9F1000F3FF449AF3C4B1D
:102C68003C4AD3F800C04FF4616EB8FBFCFCBCFBD7
:102C7800F9F3A2FB03824FF47A7809FB13CC08FB23
:102C88000CFC4FEAD2280EFB1838334BCDF81CC089
:102C9800A3FB08E3BCFBF9FE5B09C3EB031CA8EB31
:102CA8008C0C4FF47A78CDF800C0DDF81CC02046B3
:102CB80009FB1ECC08FB0CFCBCFBF9F92749D20A1E
:102CC800CDF804E0CDF80890FFF796FE82440FE7B0
:102CD800234B059A204653F822202249FFF78CFE01
:102CE800804619E7424620461F49FFF785FE824481
:102CF800FEE61E491E484FF400731E4AFFF774FA99
:102D08004FF400711B48FFF767FA00BF8D290000D8
:102D1800B1290000F1290000D06402008465020096
:102D2800C8640200FC640200086502000C65020029
:102D380078EE0400242605000465020058650200A8
:102D4800506502005C65020060650200B005002065
:102D5800B4050020C5B3A29189888888E064020080
:102D68009865020000650200D46402004465020010
:102D78008C600200146502002DE9F0410D880C46B4
:102D8800D1E901380746164686B0C5F3821533B136
:102D980013495B1A43F3CF0100291ADA00230022F2
:102DA800B4F802C0384654F8107BCCF3CB0CCDE90C
:102DB80003C6C7F3492C9445009504EB0C0508BFDE
:102DC8001446414602950194FFF73EFE06B0BDE861
:102DD800F0812078C0F3C200FFF71CFD0346DEE750
:102DE800F45B02000123074A074990420B6005D9AA
:102DF800400890424FEA4303FAD80B60034B18602F
:102E0800704700BF40420F00B4050020B005002005
:102E18002DE9F0410F4669B1DFF820804518D8F850
:102E28000860441E013D14F8011F40467368984726
:102E3800AC42F8D13846BDE8F08100BF78590200AD
:102E4800014B002019607047C00500200122024B89
:102E580002481A70FFF7E4BDFDB100203C6602008D
:102E680010B5064B0C461868FFF750FC2146BDE824
:102E7800104003460A220248184700BFC005002038
:102E88003C66020008B507480BF05AFF00B108BDC0
:102E9800054906486F23064AFFF7A6F96F2104483B
:102EA800FFF79AF978590200E46502008C60020085
:102EB800AC650200074C08B52246B9230649074805
:102EC800FFF792F906490748FFF78EF9B92120461E
:102ED800FFF782F9CC610200FC6102008C600200FD
:102EE800D80500201462020001222DE9F041354E78
:102EF800354B357D05F01F0168098A4003EB8003D7
:102F0800D043D3E8EF1F01EA0004C3E8E74F002FDE
:102F1800F7D1114201D1BDE8F0812C4B002B3BD0F9
:102F28002B4B05EB450203EB8201497813F822008D
:102F3800FFF7C2F94FF02003EFF3118883F31288EB
:102F4800BFF36F8F23480CF06BFB50B321480CF094
:102F580085FB214B1C685CB11D4FA2682AB1337DEB
:102F680003EB430317F8230090472468002CF4D19F
:102F780018480CF063FB10B388F31188BFF36F8F08
:102F88000023134905EB450501EB8502AD004B51C4
:102F9800C2E90133BDE8F08183F31188BFF36F8F75
:102FA800C8E78E230D4A0E490E48FFF71DF9094957
:102FB8000D48FFF719F98E210848FFF70DF9FFF7BB
:102FC80079FF00BFE0A60020FC050020C122000018
:102FD800F0050020D8050020DC050020CC610200A7
:102FE8002C6202008C600200446202002DE9F04766
:102FF800664F81463E7D4FF02003EFF3118583F342
:103008001288BFF36F8F62480CF00AFB002800F0AB
:10301800A5805F480CF022FBDFF878C106EB460379
:103028001CF823204FEA830A4FEA46080CEB830377
:10303800002A79D093E807004FF0000E564C0CF8A0
:103048000AE0544484E8070051480CF0F7FA0028D5
:1030580076D085F31188BFF36F8F4F4D08EB0603C9
:1030680015F8234005EB8303002C49D0B9F1FF3F45
:1030780049D10DF0CDFC4FF02003EFF3118983F314
:103088001288BFF36F8F45480CF0CAFA002875D034
:1030980042480CF0E3FA424B1C6854B162682AB10A
:1030A8003B7D03EB430315F8230090472468002C6D
:1030B800F4D13A480CF0C2FA044600285CD089F3EF
:1030C8001188BFF36F8F0122364B710903EB81031F
:1030D80006F01F018A40D3E8EF1F1143C3E8E01F41
:1030E8000028F8D1304B3BB1464405EB86035978AC
:1030F80015F82600FFF7D2F8FFF7F6FE0DF0FAFCF8
:103108002046BDE8F0879A6800214FF4004327481D
:10311800E2FB03010023264AFDF71AF80121A9EB77
:1031280000000EF059FBA4E74946304600F04EF87F
:10313800002889D007C8184B9A448AE8070083E713
:10314800B9231C4A1C491D48FFF74EF810491C4872
:10315800FFF74AF8B9211748FFF73EF819498E23B7
:10316800144A1648FFF740F809491748FFF73CF892
:103178008E211048FFF730F8FFF79CFE11498E2387
:103188000C4A0E48FFF730F80449EEE7E0A60020A5
:10319800D4050020E4050020F0050020D805002013
:1031A800DC050020FC050020A52200003F420F009E
:1031B80040420F00CC610200FC6102008C600200FA
:1031C800146202002C620200446202002DE9F04FF2
:1031D8008A4687B005A9CDF80CA000F047F8441E30
:1031E80024B2601C36D04FF400474FF000094FF06E
:1031F800000B1B4B059A1B681A4EDFF86CA0019256
:103208000293B4464946019B04EB440503EB85054C
:1032180068685246E0FB07C15B466046FCF798FFCA
:10322800B44649468046A8685B46E0FB07C152465B
:103238006046FCF78DFF029B013C591C24B201D06B
:10324800834205D9039B5A1C05D04044984202D9B1
:10325800631CD6D10025284607B0BDE8F08F00BF13
:103268000C0000203F420F0040420F0008B9024BFB
:103278000B600020704700BF50660200FEE700BFE9
:1032880001481CF017BB00BF5066020010B5044689
:1032980088B1616808290DD031F004030AD011F013
:1032A80002010DD0214609480CF00AF800232360DA
:1032B8000023636010BD064B06485B689847E8E743
:1032C8001422206808F030F8F2E700BF000600205A
:1032D8002C0100205866020010B5044670B16368DE
:1032E800042B0AD0082B08D0206803B958B10CF079
:1032F800F5F9636843F00103636010BD104B114892
:103308005B689847EBE74FF0FF324FF0FF332146F9
:103318000D480BF067FF70B1094B0C485B68984784
:1033280020681422002107F0FFFFD4E9000343F0CE
:1033380002036360DBE720680028F2D1ECE700BFF6
:103348002C0100205866020000060020806602005A
:1033580048B308B54368042B17D0082B0AD003B329
:1033680000684FF0FF324FF0FF330CF0BFF950B157
:103378000E4808BD03680E4A1B7803F5807352F89F
:103388002330002BF4D1002008BD01220368D3E8C4
:10339800EF1F002903D1C3E8E02F0028F7D1F2D0AE
:1033A800E6E7044808BD6FF4E0407047E98FFFFF87
:1033B80000000350EA8FFFFF28B308B54368042BC9
:1033C80011D0082B05D0E3B100680CF06FFA00208B
:1033D80008BD002203680D491B78104603F5807369
:1033E80041F8232008BD00220368D3E8EF1F012914
:1033F80003D1C3E8E02F0028F7D1054808BF1046DD
:1034080008BD044808BD6FF4E04070470000035051
:10341800E98FFFFFEA8FFFFF08B506494023142212
:1034280005480BF0BFFEBDE80840044904481CF0FD
:10343800F9BA00BF2006002000060020C06602007E
:10344800B0660200024A136801331360704700BF78
:10345800C81C0020024A136801331360704700BF7C
:10346800C41C002070B5044684B010B1204604B0D6
:1034780070BD1E460C480AAB0D46039308F088F849
:103488003246089B014600950848FDF74BFE039914
:103498000748FDF745FE0748FDF744FE08F07AF8AF
:1034A800204604B070BD00BFD46602000C6702005D
:1034B8003467020078EE04002DE9F04F4FF0000960
:1034C80085B0054635481646884618F055FF4946E2
:1034D800324818F06BFF0446B0FA80F0304B674270
:1034E8000193304B304A009330497523CDF808904A
:1034F80003974009FFF7B6FF96B32B69002B36D028
:103508004E46DFF898B0DFF8A890DFF89CA01CE0E2
:1035180042464946584618F05DFF214CD5F804C08C
:103528000194204C474200940446ACEB0000B0FAEA
:1035380080F0862352461F49CDF808C040090397FA
:10354800FFF790FF2B69B34211D96B7A0136012B33
:10355800DED14FF480524846A96907F0A7FED7E7A5
:10356800424613490D4818F035FF044647426A6839
:103578008B23101BB0FA80F002920A4C084A0D49BE
:1035880001920397084A00944009FFF76BFF0A4924
:10359800024805B0BDE8F04F18F046BFD01B002028
:1035A80034670200B4680200D4660200586702005B
:1035B800680B002078670200881B00202DE9F04F77
:1035C80087B0FDF7C7F8654C654B0022196820687D
:1035D800FFF772FF8146FDF7BFF82368614F58680F
:1035E800614ECDE90170A0EB0900B0FA80F05F4DA3
:1035F800C9F100093246CDF80C909C235C4900952E
:103608004009FFF72FFFCDE90057DFF868815A4AD4
:10361800D8F8000013680290C01AB0FA80F05B4234
:10362800DFF858A1DFF858B13246039355499F2374
:103638004009FFF717FF23685946D8F8002050467D
:1036480093F8089007F0F4FD8446BCF1000C18BF0D
:103658004FF0010C236859461B7AD8F800205046D1
:103668000593ACEB090907F0E3FD8446BCF1000CB7
:1036780018BF4FF0010CB9FA89F9059BCCF1000C81
:103688004FEA5919CDF80CC03246CDE901734846C6
:10369800A0233D490095FFF7E5FE314B52461968D6
:1036A8003A4800230FF02AFA23688446D3F804E046
:1036B800CCF1000CAEEB0000B0FA80F0CDE9017E51
:1036C800CDF80CC03246A923294900954009FFF7D7
:1036D800C9FE294A2B491368CDE90057D8F80000DC
:1036E80032460290C01AB0FA80F05B420393400958
:1036F800AC23FFF7B7FE23685946D8F80020504698
:1037080093F8089007F094FD034624685946D8F8C2
:1037180000205046B3F1000894F808A018BF4FF0F5
:10372800010807F085FD0446A8EB0908003C18BF0E
:103738000124B8FA88F864424FEA58183246AD2393
:103748004046CDE9017A104900950394FFF78AFEB7
:103758000F4807B0BDE8F04F18F022BECC1B002080
:10376800240B002034670200D4660200C0680200FF
:1037780078670200200B0020C81B0020881B00204F
:10378800280B0020B8670200E4670200680B0020DD
:10379800D01B00202DE9F04F85B0FCF7DBFF304E41
:1037A800304B012219683068FFF786FE0446FCF7A3
:1037B800D3FF3368DFF8B0805868DFF8B090CDE900
:1037C8000180001BB0FA80F0294F64424A460394F6
:1037D800BF23284900974009FFF744FECDE9007848
:1037E800254D264B28681B680290C01AB0FA80F055
:1037F8005B424A46DFF888B0DFF888A00393224985
:10380800C2234009FFF72EFE336859462A685046FE
:103818001C7A07F00DFD0346366859462A6850465B
:103828001D1E18BF0125367A07F002FD2D1B044620
:10383800003C18BF0124B5FA85F564426D094A4673
:10384800C323284611490296CDF8048000970394B3
:10385800FFF708FE0E4805B0BDE8F04F18F0A0BD10
:10386800CC1B0020240B002034670200D466020021
:103878009868020078670200200B0020C81B00200F
:10388800280B0020881B0020B8670200E4670200AC
:10389800D01B002038B50B4C41F21D0223680A49A1
:1038A8009869FCF747FF05462068084B40220849FD
:1038B800C0691D60FCF73EFF064A074B10601860A0
:1038C80038BD00BFCC1B0020680B0020240B002053
:1038D800280B0020200B0020C81B002008B541F24F
:1038E8001D0200210B4807F01FFD402200210A4855
:1038F80007F01AFD40220021084807F015FD084A84
:10390800084B1168084A03EB41131360BDE80840EF
:10391800FFF7C0BF680B0020881B0020280B002081
:10392800C81C0020C0640500CC1B002070B50B4DDE
:103938000B4C2B684022D968D86921600949FCF7EB
:10394800F9FE03462968084D084E2B60226833604B
:1039580089690748BDE8704007F0A8BCCC1B002067
:10396800240B0020280B0020C81B0020200B00205F
:10397800680B002008B541F21D0200210B4807F032
:10398800D3FC402200210A4807F0CEFC4022002147
:10399800084807F0C9FC084A084B1168084A03EBB5
:1039A80041131360BDE80840FFF7C0BF680B002053
:1039B800881B0020280B0020C41C0020C0660500BE
:1039C800CC1B0020024A136801331360704700BF04
:1039D800802D0020024A136801331360704700BF2E
:1039E8007C2D002070B5044684B010B1204604B088
:1039F80070BD1E460C480AAB0D46039307F0C8FD80
:103A08003246089B014600950848FDF78BFB039951
:103A18000748FDF785FB0748FDF784FB07F0BAFD6B
:103A2800204604B070BD00BFD86802000C670200D1
:103A38003467020078EE04002DE9F04F4FF00009DA
:103A480085B005463548164688460FF07FF8494642
:103A58003248FCF7E9FC0446B0FA80F0304B674284
:103A68000193304B304A009330497523CDF80890C4
:103A780003974009FFF7B6FF96B32B69002B36D0A2
:103A88004E46DFF898B0DFF8A890DFF89CA01CE05D
:103A98004246494658460FF03DFE214CD5F804C031
:103AA8000194204C474200940446ACEB0000B0FA65
:103AB80080F0862352461F49CDF808C04009039775
:103AC800FFF790FF2B69B34211D96B7A0136012BAE
:103AD800DED14FF480524846A96907F0E7FBD7E7E3
:103AE800424613490D480FF015FE044647426A68DE
:103AF8008B23101BB0FA80F002920A4C084A0D4939
:103B080001920397084A00944009FFF76BFF0A499E
:103B1800024805B0BDE8F04F0FF002BEF0010020EA
:103B28003467020054690200D8680200586702002E
:103B3800141D002078670200342D00202DE9F04F75
:103B480087B0FCF707FE654C654B002219682068B2
:103B5800FFF772FF8146FCF7FFFD2368614F586845
:103B6800614ECDE90170A0EB0900B0FA80F05F4D1D
:103B7800C9F100093246CDF80C909C235C490095A8
:103B88004009FFF72FFFCDE90057DFF868815A4A4F
:103B9800D8F8000013680290C01AB0FA80F05B42AF
:103BA800DFF858A1DFF858B13246039355499F23EF
:103BB8004009FFF717FF23685946D8F800205046F8
:103BC80093F8089007F034FB8446BCF1000C18BF4A
:103BD8004FF0010C236859461B7AD8F8002050464C
:103BE8000593ACEB090907F023FB8446BCF1000CF4
:103BF80018BF4FF0010CB9FA89F9059BCCF1000CFC
:103C08004FEA5919CDF80CC03246CDE90173484640
:103C1800A0233D490095FFF7E5FE314B5246196850
:103C28003A480023FCF7A0FC23688446D3F804E054
:103C3800CCF1000CAEEB0000B0FA80F0CDE9017ECB
:103C4800CDF80CC03246A923294900954009FFF751
:103C5800C9FE294A2B491368CDE90057D8F8000056
:103C680032460290C01AB0FA80F05B4203934009D2
:103C7800AC23FFF7B7FE23685946D8F80020504612
:103C880093F8089007F0D4FA034624685946D8F800
:103C980000205046B3F1000894F808A018BF4FF070
:103CA800010807F0C5FA0446A8EB0908003C18BF4C
:103CB8000124B8FA88F864424FEA58183246AD230E
:103CC8004046CDE9017A104900950394FFF78AFE32
:103CD8000F4807B0BDE8F04F0EF03CBF782D00202C
:103CE800D01C002034670200D86802006469020012
:103CF80078670200CC1C0020742D0020342D002091
:103D0800D41C0020B8670200E4670200141D0020DC
:103D1800F00100202DE9F04F85B0FCF71BFD304E77
:103D2800304B012219683068FFF786FE0446FCF71D
:103D380013FD3368DFF8B0805868DFF8B090CDE93C
:103D48000180001BB0FA80F0294F64424A46039470
:103D5800BF23284900974009FFF744FECDE90078C2
:103D6800254D264B28681B680290C01AB0FA80F0CF
:103D78005B424A46DFF888B0DFF888A003932249FF
:103D8800C2234009FFF72EFE336859462A68504679
:103D98001C7A07F04DFA0346366859462A68504699
:103DA8001D1E18BF0125367A07F042FA2D1B04465E
:103DB800003C18BF0124B5FA85F564426D094A46EE
:103DC800C323284611490296CDF80480009703942E
:103DD800FFF708FE0E4805B0BDE8F04F0EF0BABE7A
:103DE800782D0020D01C002034670200D86802001B
:103DF8003869020078670200CC1C0020742D00206E
:103E0800D41C0020342D0020B8670200E4670200AB
:103E1800F001002038B50B4C41F21D0223680A4915
:103E28009869FCF787FC05462068084B402208493A
:103E3800C0691D60FCF77EFC064A074B10601860DD
:103E480038BD00BF782D0020141D0020D01C002094
:103E5800D41C0020CC1C0020742D002008B541F291
:103E68001D0200210B4807F05FFA402200210A4892
:103E780007F05AFA40220021084807F055FA084A84
:103E8800084B1168084A03EB41131360BDE808406A
:103E9800FFF7C0BF141D0020342D0020D41C0020C3
:103EA800802D0020C0650500782D002070B50B4DD1
:103EB8000B4C2B684022D968D86921600949FCF766
:103EC80039FC03462968084D084E2B602268336088
:103ED80089690748BDE8704007F0E8B9782D0020E7
:103EE800D01C0020D41C0020742D0020CC1C0020E5
:103EF800141D002008B541F21D0200210B4807F0EF
:103F080013FA402200210A4807F00EFA4022002145
:103F1800084807F009FA084A084B1168084A03EBF1
:103F280041131360BDE80840FFF7C0BF141D00200F
:103F3800342D0020D41C00207C2D00208066050034
:103F4800782D0020024A136801331360704700BFC0
:103F5800902D0020024A136801331360704700BF98
:103F6800882D002070B5044684B010B1204604B0F6
:103F780070BD1E460C480AAB0D46039307F008FBBC
:103F88003246089B014600950848FDF7CBF803998F
:103F98000748FDF7C5F80748FDF7C4F807F0FAFA2F
:103FA800204604B070BD00BF7C6902000C670200A7
:103FB8003467020078EE04002DE9F04F364E85B0E4
:103FC8003368364D18780EF065FB0446FCF7C2FBE3
:103FD800334A344B1268344900921A682046334BEE
:103FE80001950EF027FD0446FCF7B6FB3368DFF8B1
:103FF800C0805868DFF8BC90CDE90180001BB0FA9A
:1040080080F02D4F64424A4603948E232B49009733
:104018004009FFF7A7FFCDE90078DFF8A4A0294BF6
:10402800DAF800001B680290C01AB0FA80F05B4210
:104038004A46DFF894B00393244990234009FFF7D8
:1040480091FF33685946DAF8002028461C7A07F0B1
:10405800EFF8034636685946DAF8002028461D1E50
:1040680018BF0125367A07F0E3F82D1B0446003CFB
:1040780018BF0124B5FA85F564426D094A469123B3
:10408800284613490296CDF8048000970394FFF759
:1040980069FF05B0BDE8F08F28300020DC2F002034
:1040A800942D0020982D0020DC2E0020DC2D0020EF
:1040B800346702007C690200C86A0200786702005F
:1040C800842D00208C2D00209C2D0020B06902003A
:1040D800E069020010B586B00BA805900023054CD6
:1040E8000222CDE90240CDE900331846FEF7C6FBAF
:1040F80006B010BD6C6A02002DE9F043594F85B037
:1041080059480EF0D3FA3B6818780EF0C3FA01222A
:10411800014655480EF000FB0646002840F0958001
:104128004FF00009B6FA86F0504D514C6623CDE9A0
:104138000045504A50490296CDF80C904009FFF7C7
:1041480011FFFCF707FB4D4B4D491A6846480EF026
:10415800A9FB0290B0FA80F0CDE900456A23454AF0
:104168004549CDF80C904009FFF7FCFE454B464900
:104178001A683D480EF004FC0290B0FA80F06E23F5
:104188003C4ACDE900453C49CDF80C904009FFF781
:10419800E9FE3E4934480EF003FC0646FCF7DCFA1B
:1041A8003B68DFF8EC805868324ACDE90150801B43
:1041B800B0FA80F07642009403967423354940099A
:1041C800FFF7D0FED8F80000334BCDE9015000943A
:1041D8001B68284AC01AB0FA80F05B4203932F4943
:1041E80077234009FFF7BEFE3B68D8F800202C492A
:1041F80026481E7A07F01CF803463968D8F80020CC
:10420800B3EB090791F808802048254918BF012712
:1042180007F00EF8BF1B0646CDE90045B6EB0904CA
:1042280018BF0124B7FA87F764427F097823384614
:10423800104A1C49CDF808800394FFF793FE0A48FA
:1042480005B0BDE8F0430EF035BA002316494242E6
:104258000392029102221846CDE900331349FFF771
:1042680039FF5DE7283000201C3000203467020049
:10427800E86A02007C690200846A0200982D002026
:10428800DC2E0020942D0020DC2D0020DC2F0020C7
:10429800842D0020786702008C2D0020B069020070
:1042A8009C2D0020E06902006C6A02009C5C020000
:1042B80008B54FF4807200210A4807F035F84FF42A
:1042C80080720021084807F02FF840220021074893
:1042D80007F02AF8BDE8084040220021044807F00A
:1042E80023B800BFDC2E0020DC2D0020DC2F0020AE
:1042F8009C2D002038B5104C4FF4807223680F496C
:104308005869FCF717FA054621680D4B4FF480727F
:1043180008690C491D60FCF70DFA054620680A4B30
:1043280040220A4980691D60FCF704FA084A094BD3
:104338001060186038BD00BF28300020DC2E002037
:10434800982D0020DC2D0020942D00209C2D00208D
:10435800842D00208C2D002008B5FFF7A9FF064BFF
:10436800064A1B680649C3EBC30302EB83030B60D1
:10437800BDE80840FFF7BEBF902D002094610500FE
:1043880028300020704700BF70B5044684B010B1D3
:10439800204604B070BD1E460C480AAB0D46039378
:1043A80007F0F6F832460A4B014600950948FCF733
:1043B800B9FE03990848FCF7B3FE0848FCF7B2FEBB
:1043C80007F0E8F8204604B070BD00BFFC6A0200A0
:1043D8002C6D02000C6702003467020078EE0400BE
:1043E8002DE9F04FDFF8849289B0FCF7B3F9D9F8DA
:1043F8000030DFF87C8218780EF04CF99D4B9E4A0D
:1044080019689E4B12681B689D4C0093D8F80030C1
:10441800039404939B4B9C4D1B68019502939B4B03
:1044280006900FF053FB8246FCF796F9D9F8003056
:10443800974F5868974ECDE90170A0EB0A00B0FA83
:1044480080F0954DCAF1000A3246CDF80CA06D23D4
:10445800924900954009FFF797FFCDE90057DFF82B
:1044680040B2D8F80030DBF8000032460290C01A9B
:10447800B0FA80F05B4203938A4970234009FFF742
:1044880083FFD9F80030DBF800202046864993F8EE
:104498000CA006F0CDFE8446BCF1000C18BF4FF00E
:1044A800010CD9F80030DBF800201B7B20467E4940
:1044B8000793ACEB0A0A06F0BBFE8446BAFA8AFAFE
:1044C800BCF1000C18BF4FF0010C4FEA5A1A5046C5
:1044D8004FF0FF0A079BCCF1000CCDF80CC0324618
:1044E800CDE90173714971230095FFF74DFFCDE9BF
:1044F800017AD8F800300095E05C6D494242A0EBA3
:104508000A00B0FA80F00392772332464009FFF799
:104518003BFFCDE9017AD8F800300095234458785C
:1045280064494242A0EB0A00B0FA80F07723039274
:1045380040093246FFF728FF51464FF48172204662
:1045480006F0F2FE4F4BD8F800201B6802925A4A38
:10455800009301944C4B0698126858490FF030FAB2
:10456800D9F800308446D3F808E0CCF1000CAEEB63
:104578000000B0FA80F0CDE9017ECDF80CC03246DB
:1045880082234F4900954009FFF7FEFECDE9005709
:10459800D8F80030DBF8000032460290C01AB0FAB2
:1045A80080F05B4203933F4986234009FFF7ECFE06
:1045B800D9F80030DBF8002020463B4993F80DA0DD
:1045C80006F036FE0346D9F80000DBF80020B3F108
:1045D800000990F80DB03449204618BF4FF0010982
:1045E80006F026FE8446A9EB0A09B9FA89F9BCF156
:1045F800000C18BF4FF0010C4FEA591948464FF00C
:10460800FF09CCF1000CCDF80CC032468723CDE968
:10461800017B2C490095FFF7B7FECDE90179D8F861
:1046280000300095E05C22494242A0EB0900B0FA54
:1046380080F003928D2332464009FFF7A5FED8F893
:104648000030CDE901791C44607832464342A0EB42
:104658000900B0FA80F0039316498D2300954009AC
:10466800FFF792FE09B0BDE8F08F00BF5C3600206E
:10467800543600205836002064360020343000209C
:1046880048330020383000204432002040310020D8
:1046980034670200FC6A02002C6D02007867020091
:1046A8002C300020306B02003C3000205C6B020094
:1046B800E46B0200146C0200603600204C340020C9
:1046C800486C02008C6C020008B54FF4817200211E
:1046D800114806F029FE4FF48172FF210F4806F0B9
:1046E80023FE4FF4817200210D4806F01DFE4FF4A1
:1046F800817200210B4806F017FE4FF481720021E9
:10470800094806F011FEBDE808404FF48172002107
:10471800064806F009BE00BF40310020483300209B
:104728004C34002050350020443200203C3000201A
:1047380070B51E4C4FF4817223681D495869FBF708
:10474800F9FF064621681B4B4FF48172C8691A4964
:104758001E60FBF7EFFF06462268184B106A1849DF
:104768004FF481721E60FBF7E5FF03462168154D83
:104778004FF48172486A14492B60FBF7DBFF064649
:104788002168124B4FF48172886911491E60FBF74A
:10479800D1FF2A680A4B002A08BF00230D490E4A98
:1047A8000E4C08602360106070BD00BF5C360020AE
:1047B80040310020343000204C3400206036002086
:1047C8005035002064360020443200203830002064
:1047D8003C3000202C300020543600205836002071
:1047E80008B5FFF771FF0749074A0B68074803EB4D
:1047F800830C02EBCC0201330B600260BDE8084079
:10480800FFF796BF30300020645F05005C3600205B
:10481800704700BF70B5044684B010B1204604B09C
:1048280070BD1E460C480AAB0D46039306F0B0FE59
:104838003246089B014600950848FCF773FC03992B
:104848000748FCF76DFC0748FCF76CFC06F0A2FE75
:10485800204604B070BD00BF406D02000C67020026
:104868003467020078EE040000222DE9F04F00F1D1
:104878007C0B85B082461146584615461FF01CFB36
:104888000446B0FA80F0384F384EDFF8E490DFF88D
:10489800E480C4F1000CCDF80CC0352331463A460B
:1048A800CDE90195CDF800804009FFF7B3FF2A460E
:1048B800012158461FF000FB0443C4F1000314BF54
:1048C8002846012031463A460393CDE9019537231E
:1048D800CDF80080FFF79EFF2A46022158461FF0B8
:1048E800EBFA0443C4F1000314BF284601203A46FA
:1048F80031460393CDE901953923CDF80080FFF7C0
:1049080089FF0122FE2158461FF0D6FA0443C4F15C
:10491800000314BF2846012031463A460393CDE9E7
:1049280001953B23CDF80080FFF774FF2A465846CF
:10493800FF211FF0C1FA0443C4F100033A4631468F
:104948000CBF012028460393CDE901953D23CDF8FE
:104958000080FFF75FFF01210AF1A0001FF07AFA3B
:10496800204605B0BDE8F08F406D02005867020090
:1049780034670200C87002002DE9F047F4B0C34E56
:1049880004A80EF0EBFF3CA80EF0E8FF336805A87A
:10499800197814F05DFC07464FF00008B0FA80F073
:1049A800BB4DBC4C7F42BC4ACDF80880CE23BB49E6
:1049B8000397019500944009FFF72CFF33683DA841
:1049C800197814F045FC0746B0FA80F07F42CDE92B
:1049D8000158D223B04AB149039700944009FFF720
:1049E80019FF32681021136827A8092B0DBFDFF8BB
:1049F800B082D369D2F824804346926912F080FECF
:104A080084460027B0FA80F0CCF1000CCDF80CC039
:104A1800E623A14AA149CDE9004502974009FFF7DD
:104A2800F9FE336810211A6924A81FF06BFF844629
:104A3800B0FA80F0CCF1000CCDF80CC0EA23964A0D
:104A48009649CDE9015700944009FFF7E3FE326823
:104A580043461021126A5FA812F052FE8446B0FA4B
:104A680080F0CCF1000CCDF80CC0F1238A4A8B49B8
:104A7800CDE9015700944009FFF7CCFE33681021B7
:104A88005A695CA81FF03EFF8446B0FA80F0CCF16A
:104A9800000CF523804ACDE9015780490094CDF8F0
:104AA8000CC04009FFF7B6FE33681A68092A00F0FF
:104AB80084811F7A002F00F02B814FF40072986ACE
:104AC8007849FBF737FE4FF0000A774FDFF8DC91A3
:104AD8003860FBF73FFECDF804A0D9F8001024ABEE
:104AE8005FAA009105A839A917F054FA8046FBF788
:104AF80033FE3368684A58686D49CDE90150A0EB28
:104B08000800B0FA80F0C8F100084FF495730094DB
:104B1800CDF80C804009FFF77DFE39A81FF024FA74
:104B28003A688046634939A81FF0B8FA8446B0FA53
:104B380080F0CCF1000CCDF80CC0CDE9015A0094FE
:104B48004FF49873544A55494009FFF763FED9F862
:104B5800003027AA0093CDF804A05CAB71A93DA84A
:104B680017F018FA33688446D3F804E0CCF1000C47
:104B7800AEEB0000B0FA80F0CDE9015ECDF80CC0D4
:104B880040F23F13444A4A4900944009FFF742FE65
:104B980071A81FF0E9F93A688146474971A81FF0E2
:104BA8007DFA8446B0FA80F0CCF1000CCDF80CC048
:104BB800CDE9015A00944FF4A273374A37494009A6
:104BC800FFF728FECDE900453868C8F100030290D8
:104BD800A0EB0800B0FA80F003932F4A40F2471385
:104BE80036494009FFF716FECDE900453868C9F196
:104BF80000030290A0EB0900B0FA80F00393264A64
:104C08004FF4A4732E494009FFF704FE3368424667
:104C18002949284893F808A006F00AFB034631689A
:104C2800424691F80890B3F100082349214818BF7B
:104C38004FF0010806F0FCFA8446A8EB0A08BCF11C
:104C4800000C18BF4FF0010CB8FA88F8CCF1000C32
:104C58004FEA5818CDF80CC0CDE90159009440F23C
:104C68004B1340460C4A1749FFF7D4FD33683A689E
:104C78000C49114893F8089006F0DAFA03463168AF
:104C88003A6891F808801F1E1EE000BF7844002093
:104C980034670200E0700200406D020058670200AD
:104CA800A0ED0400783600206836002000000020BF
:104CB80078670200783C002078420020746D02007A
:104CC800A86D0200DC6D02004F49504818BF01274B
:104CD80006F0AEFA06460094A7EB0907341E18BF83
:104CE8000124B7FA87F764427F0940F25113484A12
:104CF80048493846CDE901580394FFF78BFD04A8CD
:104D08000EF036FE3CA80EF033FE74B0BDE8F08716
:104D180027A905A812F0ECFE8446B0FA80F0CCF181
:104D2800000C40F203133A4ACDF80CC0CDE9015704
:104D3800394900944009FFF76DFD24A905A813F02F
:104D480019FA8446B0FA80F0CCF1000C4FF4847361
:104D58002F4ACDF80CC0CDE901572F4900944009DE
:104D6800FFF758FD5FA93DA812F0C2FE8446B0FACD
:104D780080F0CCF1000C40F20D13254ACDF80CC0A0
:104D8800CDE90157244900944009FFF743FD5CA988
:104D98003DA813F0EFF98446B0FA80F0CDE9015749
:104DA800CCF100074FF48973194A1B490094039703
:104DB8004009FFF72FFD33687FE605A8FFF754FD8C
:104DC8008446B0FA80F0CCF1000CF923104A12495D
:104DD800CDF80CC0CDE9015700944009FFF71AFD42
:104DE8003DA8FFF741FD8446B0FA80F0CDE90157B0
:104DF800CCF10007FB23064A0749009403974009B2
:104E0800FFF708FD336854E6783600207842002022
:104E1800406D02006C6E0200586702002DE9F043F5
:104E2800F5B07D4C04A80EF099FD3CA80EF096FD57
:104E3800236805A8197814F00BFA07464FF0000804
:104E4800B0FA80F0754E764D7F42764A4FF4B673CD
:104E58007549039701960095CDF808804009FFF73A
:104E6800D9FC23683DA8197814F0F2F90746B0FA7E
:104E780080F07F424FF4B8736A4A6B490397CDE9D3
:104E8800016800954009FFF7C5FC22681021D2E9A6
:104E9800062327A812F034FC0746B0FA80F07F42B8
:104EA8004FF4BB735F4A60490397CDE901680095E9
:104EB8004009FFF7AFFC236810215A695CA81FF06E
:104EC80021FD0746B0FA80F07F4240F27B1303973A
:104ED800CDE90168534A544900954009FFF79AFC07
:104EE80023681F7A002F6DD04FF00009FBF732FCC2
:104EF8004E495CAB096827AA0091CDF8049071A9C6
:104F08003DA817F047F80746FBF726FC2368DFF8AB
:104F180020815868434ACDE90160C01BB0FA80F08F
:104F28007F424FF4CE730397424900954009FFF73B
:104F380071FCD8F80020404971A81FF0AFF8074667
:104F4800B0FA80F07F42CDE9016903974FF4D0733E
:104F5800344A354900954009FFF75CFC2368D8F8C6
:104F680000203649344893F8089006F061F907465E
:104F78002368003FD8F8002030492F4893F808806C
:104F880018BF012706F054F90446A7EB0907003CAF
:104F980018BF0124B7FA87F764427F094FF4D17329
:104FA800204A27493846CDE9016800950394FFF760
:104FB80031FC04A80EF0DCFC3CA80EF0D9FC75B05E
:104FC800BDE8F08327A905A812F092FD8446B0FA3F
:104FD80080F0CCF1000CCDF80CC04FF4C173CDE9D2
:104FE8000167104A104900954009FFF713FC5CA9B6
:104FF8003DA813F0BFF88446B0FA80F0CDE9016708
:10500800CCF1000740F28713064A07490095039739
:105018004009FFF7FFFB67E7784400203467020088
:10502800A4700200406D02005867020000000020D2
:105038006836002078670200784200207836002021
:105048006C6E02002DE9F04FF5B0DFF8D8A104A886
:105058000EF084FC3CA80EF081FCDAF8003005A8BC
:10506800197814F0F5F84FF000080290B0FA80F0C3
:105078006D4C6E4E6E4D2246CDF80C808A236D49DC
:10508800019600954009FFF7C5FBDAF800303DA806
:10509800197814F0DDF80290B0FA80F0DFF89891F2
:1050A800664F2246CDF80C808E23CDE90056644920
:1050B8004009FFF7AFFBCDF800903B6827AA24A969
:1050C80005A816F057FF8446B0FA80F0DFF874B1EF
:1050D800CCF1000CCDF80CC022465946CDE9016848
:1050E800942300954009FFF795FBCDF800903B68A5
:1050F8005FAA5CA93DA816F03DFF8446B0FA80F08F
:10510800CCF1000CCDF80CC022469A23CDE90168F9
:105118004D4900954009FFF77DFBFBF71BFBCDF8D8
:105128000490396824AB5FAA009105A839A916F044
:1051380031FF8446CDF804903B6827AA71A90093F3
:105148003DA85CABE14616F025FF0746FBF704FBDC
:10515800B9FA89F0C9F1000359462246CDE9016838
:1051680003930095A7234009FFF754FBB7FA87F08C
:105178007F422246A9233449CDF808800397CDE918
:1051880000564009FFF746FB39A81EF0EDFE07461A
:1051980071A81EF0E9FEC0F1000C381AB0FA80F0D0
:1051A800CDF80CC022460297AD23CDE90056274919
:1051B8004009FFF72FFBDAF800303A4673993B981D
:1051C80093F808B006F034F88046DAF80030B8F101
:1051D80000083A4673993B9893F8089018BF4FF027
:1051E800010806F025F807462246A8EB0B083C1EE6
:1051F80018BF0124B8FA88F864424FEA5818AF2358
:1052080013494046CDE9016900950394FFF702FB75
:1052180004A80EF0ADFB3CA80EF0AAFB75B0BDE8E3
:10522800F08F00BF78440020406D02003467020010
:1052380008710200F86E0200A0050020000000209E
:10524800206F0200486F0200706F0200986F020022
:10525800D06F020008B54FF400720021144806F020
:1052680063F84FF400720021124806F05DF84FF41D
:1052780000720021104806F057F84FF40072002120
:105288000E4806F051F84FF4007200210C4806F061
:105298004BF84FF4007200210A4806F045F8BDE8C3
:1052A80008404FF400720021074806F03DB800BFDF
:1052B80078380020783E0020783A00207840002096
:1052C800783C0020784200207836002008B5054B4D
:1052D8004FF400721B680449986AFBF72BFA034BDA
:1052E800186008BD78440020783600206836002011
:1052F80010B5FFF7AFFF2C200649074B0A6800FBE3
:105308000233541C0C6005490B60BDE81040FFF7E0
:10531800DDBF00BF74360020043805007844002043
:1053280010B5FFF797FF2C200649074B0A6800FBCA
:105338000233541C0C6005490B60BDE81040FFF7B0
:10534800C5BF00BF70360020303805007844002003
:1053580010B5FFF77FFF2C200649074B0A6800FBB2
:105368000233541C0C6005490B60BDE81040FFF780
:10537800ADBF00BF6C36002090390500784400208E
:10538800704700BF70B5044684B010B1204604B021
:1053980070BD1E460C480AAB0D46039306F0F8F89C
:1053A8003246089B014600950848FBF7BBFE039967
:1053B8000998FBF7B5FE0648FBF7B4FE06F0EAF8D5
:1053C800204604B070BD00BF247102000C670200C3
:1053D80078EE04002DE9F04FE1B00AA80EF0EAFAE1
:1053E8007C4BDFF8F4B11A680AA811797B4BDBF81B
:1053F800002016F067FF84460024B0FA80F0784D4C
:10540800784E794FDFF8E481CCF1000C2A46CDF8CC
:105418000CC04FF48073394602940096CDF804808E
:105428004009FFF7AFFF2CA90AA812F061FB8446D8
:10543800B0FA80F0CCF1000C2A46CDF80CC040F24E
:1054480005133946CDE9018400964009FFF79AFF14
:1054580029A90AA812F08EFE8446B0FA80F0CCF191
:10546800000CCDF80CC02A46394640F20913CDE9A4
:10547800018400964009FFF785FF04A81EF034FC5C
:1054880007A81EF031FCDFF86891FBF763F9534B6E
:10549800DFF860A1D9F800200393DBF8003004A9F5
:1054A8000293019229AB07AACDF800A00AA816F02A
:1054B800A9FDFBF751F935A80EF07CFA0AA935A821
:1054C80012F0F6F88446B0FA80F0CCF1000C2A46C7
:1054D800CDF80CC04FF48F733946CDE9018400969E
:1054E8004009FFF74FFF2CA957A812F0C9F88446C6
:1054F800B0FA80F0CCF1000CCDF80CC02A46394641
:10550800CDE901844FF4917300964009FFF73AFF03
:1055180007AB019304AB5146D9F80020009335A896
:1055280057AB16F023FE8446B0FA80F0CCF1000C9D
:10553800CDF80CC04FF494732A463946CDE901845E
:1055480000964009FFF71EFF214604A81EF0A2FCA2
:105558000246B2FA82F2214604A852091EF0ACFCB7
:105568008446B0FA80F03946CCF100072A46029406
:105578004FF49673CDF80480009603974009FFF71F
:1055880001FF07A8019004A85146D9F8002057AB9D
:10559800009035A816F0EAFD174B029444420038F3
:1055A8002A4618BF01201549019300964FF49973B4
:1055B8000394FFF7E7FE04A81EF09CFB07A81EF063
:1055C80099FB0AA80EF0F8F935A80EF0F5F961B0C4
:1055D800BDE8F08FCC44002000000020A00500208A
:1055E80024710200E072020058670200346702006A
:1055F8007C4400208C440020787102005C71020019
:105608002DE9F04FDFF804A2E3B00CA80EF0D2F9B0
:10561800DAF800300CA8197913F01AFE84464FF016
:105628000008B0FA80F07A4E7A4D7B4C7B4FCCF173
:10563800000CCDF80CC03246394600947123019510
:10564800CDF808804009FFF79DFEDAF80020102108
:10565800D2E906232EA812F053F88446B0FA80F057
:10566800CCF1000CCDF80CC03246394600947723B3
:10567800CDE901584009FFF785FEDAF8003010211E
:105688001A6A2BA81FF03EF98446B0FA80F0CCF1D4
:10569800000C3246CDF80CC07C2339460094CDE985
:1056A80001584009FFF76EFE2EA90CA812F020FA47
:1056B8008446B0FA80F0CCF1000C3246CDF80CC02C
:1056C800812339460094CDE901584009FFF75AFE75
:1056D8002BA90CA812F04EFD8446B0FA80F0CCF14C
:1056E800000CCDF80CC03246394685230DF1180B55
:1056F8000094CDE901584009FFF744FE0DF1240953
:1057080058461EF0F1FA48461EF0EEFAFBF722F86A
:10571800434A59460092434A2BAB12680CA802929E
:10572800414A12680192414A03924A4616F06AFCBD
:105738000590FBF711F8DAF80030DDF814C0986826
:105748003246CDE90150A0EB0C00B0FA80F0CCF164
:10575800000CCDF80CC09723354900944009FFF799
:1057680011FE37A80EF026F90CA937A811F0A0FFF2
:105778008446B0FA80F0CCF1000C3246CDF80CC06B
:10578800A02339460094CDE901584009FFF7FAFDF6
:105798002EA959A811F074FF8446B0FA80F0394652
:1057A800CCF100073246CDE90045A423CDF80880A6
:1057B80003974009FFF7E6FD1B4A59AB12681849E1
:1057C800CDE900B937A816F0D1FCDAF80030324636
:1057D800DE68CDE900450446301AB0FA80F064422C
:1057E800AA231449029603944009FFF7CBFD5846B3
:1057F8001EF080FA48461EF07DFA0CA80EF0DCF880
:1058080037A80EF0D9F863B0BDE8F08FD044002077
:1058180024710200346702001873020058670200FE
:105828008C440020000000207C440020A0050020BB
:105838009C710200E471020010B586B00BA80590B7
:105848000023054C0222CDE90240CDE90033184679
:10585800FDF714F806B010BD307202002DE9F047CC
:105868005D4CB8B00DA80EF0A5F823680DA81979FD
:1058780013F0EEFC0546002840F08A8006464FF0FB
:105888000008B5FA85F0554F0396554EC423554A7E
:10589800554901970096CDF808804009FFF772FD39
:1058A80022681021D2E905232FA811F029FF054607
:1058B800B0FA80F06D42CA230395CDE90178494AD0
:1058C800494900964009FFF75DFD23689D68002D52
:1058D8006ED00DF11C090DF1280848461EF004FA97
:1058E80040461EF001FA23681021DA6948461FF085
:1058F80009F805464FF0000AB0FA80F06D420395AA
:10590800DC23CDE90067374A3749CDF808A04009BC
:10591800FFF738FD236810211A6A40461EF0F2FF8F
:105928000546B0FA80F06D42DF232E4A2E490395D2
:10593800CDE9017A00964009FFF724FDFAF70AFF3E
:10594800CDE90098294A2FAB126829490DA816F00D
:105958000DFC0546FAF700FF2368224A9868254996
:105968000290401BB0FA80F06D42E823CDE9006751
:1059780003954009FFF706FD48461EF0BBF940466F
:105988001EF0B8F90DA80EF017F838B0BDE8F0878A
:1059980000232268184952684642CDE90362029101
:1059A80002221846CDE900331449FFF745FF66E7A0
:1059B8002FA90DA812F09CF88446B0FA80F0CDE922
:1059C8000175CCF10005D223064A074900960395D4
:1059D8004009FFF7D7FC7CE7D44400203467020075
:1059E800FC72020024710200586702007C44002007
:1059F8008C4400206472020030720200845C020051
:105A080008B5054B40221B6804491869FAF792FE4D
:105A1800034B186008BD00BFD44400208C4400200C
:105A28007C44002008B540220021094805F07CFC90
:105A38000849094A0B68094803EBC30C02EB8C02BE
:105A480001330B600260BDE80840FFF7D9BF00BF13
:105A58008C44002084440020A4340500D444002051
:105A680008B5054B40221B6804495869FAF762FEDD
:105A7800034B186008BD00BFD04400208C440020B0
:105A88007C44002008B540220021094805F04CFC60
:105A98000849094A0B68094803EBC30C02EB8C025E
:105AA80001330B600260BDE80840FFF7D9BF00BFB3
:105AB8008C440020884400209C360500D0440020F7
:105AC80008B5054B40221B680449D868FAF732FE2E
